{
  "contractName": "DataEntry",
  "abi": [
    {
      "anonymous": false,
      "inputs": [
        {
          "indexed": false,
          "internalType": "uint256",
          "name": "id",
          "type": "uint256"
        },
        {
          "indexed": false,
          "internalType": "string",
          "name": "data",
          "type": "string"
        },
        {
          "indexed": false,
          "internalType": "address",
          "name": "owner",
          "type": "address"
        }
      ],
      "name": "EntryCreated",
      "type": "event"
    },
    {
      "anonymous": false,
      "inputs": [
        {
          "indexed": false,
          "internalType": "uint256",
          "name": "id",
          "type": "uint256"
        }
      ],
      "name": "EntryDeleted",
      "type": "event"
    },
    {
      "anonymous": false,
      "inputs": [
        {
          "indexed": false,
          "internalType": "uint256",
          "name": "id",
          "type": "uint256"
        },
        {
          "indexed": false,
          "internalType": "string",
          "name": "data",
          "type": "string"
        }
      ],
      "name": "EntryUpdated",
      "type": "event"
    },
    {
      "inputs": [
        {
          "internalType": "uint256",
          "name": "",
          "type": "uint256"
        }
      ],
      "name": "entries",
      "outputs": [
        {
          "internalType": "uint256",
          "name": "id",
          "type": "uint256"
        },
        {
          "internalType": "string",
          "name": "data",
          "type": "string"
        },
        {
          "internalType": "address",
          "name": "owner",
          "type": "address"
        }
      ],
      "stateMutability": "view",
      "type": "function",
      "constant": true
    },
    {
      "inputs": [],
      "name": "entryCount",
      "outputs": [
        {
          "internalType": "uint256",
          "name": "",
          "type": "uint256"
        }
      ],
      "stateMutability": "view",
      "type": "function",
      "constant": true
    },
    {
      "inputs": [
        {
          "internalType": "string",
          "name": "_data",
          "type": "string"
        }
      ],
      "name": "createEntry",
      "outputs": [],
      "stateMutability": "nonpayable",
      "type": "function"
    },
    {
      "inputs": [
        {
          "internalType": "uint256",
          "name": "_id",
          "type": "uint256"
        },
        {
          "internalType": "string",
          "name": "_data",
          "type": "string"
        }
      ],
      "name": "updateEntry",
      "outputs": [],
      "stateMutability": "nonpayable",
      "type": "function"
    },
    {
      "inputs": [
        {
          "internalType": "uint256",
          "name": "_id",
          "type": "uint256"
        }
      ],
      "name": "deleteEntry",
      "outputs": [],
      "stateMutability": "nonpayable",
      "type": "function"
    }
  ],
  "bytecode": "0x608060405234801561001057600080fd5b50610b89806100206000396000f3fe608060405234801561001057600080fd5b50600436106100575760003560e01c80630cbb0f831461005c5780630f0035091461007a57806311f7516c14610096578063b30906d4146100b2578063bec9a469146100e4575b600080fd5b610064610100565b604051610071919061089f565b60405180910390f35b610094600480360381019061008f91906106e8565b610106565b005b6100b060048036038101906100ab91906106bf565b610205565b005b6100cc60048036038101906100c791906106bf565b61033c565b6040516100db939291906108ea565b60405180910390f35b6100fe60048036038101906100f9919061067e565b61040e565b005b60015481565b600080600084815260200190815260200160002090503373ffffffffffffffffffffffffffffffffffffffff168160020160009054906101000a900473ffffffffffffffffffffffffffffffffffffffff1673ffffffffffffffffffffffffffffffffffffffff16146101ae576040517f08c379a00000000000000000000000000000000000000000000000000000000081526004016101a59061085f565b60405180910390fd5b818160010190805190602001906101c692919061051e565b507f7c1bd4cf7d1c5279ddac64197b63d88bd1628659caa6332235c30f6ce3ce4f5883836040516101f89291906108ba565b60405180910390a1505050565b600080600083815260200190815260200160002090503373ffffffffffffffffffffffffffffffffffffffff168160020160009054906101000a900473ffffffffffffffffffffffffffffffffffffffff1673ffffffffffffffffffffffffffffffffffffffff16146102ad576040517f08c379a00000000000000000000000000000000000000000000000000000000081526004016102a49061087f565b60405180910390fd5b6000808381526020019081526020016000206000808201600090556001820160006102d891906105a4565b6002820160006101000a81549073ffffffffffffffffffffffffffffffffffffffff021916905550507f9ad2ca3ec51dc768a93a3a6f7b5778dd0e5f4d4ba47a19df55a0a9a325bcdecb82604051610330919061089f565b60405180910390a15050565b600060205280600052604060002060009150905080600001549080600101805461036590610a23565b80601f016020809104026020016040519081016040528092919081815260200182805461039190610a23565b80156103de5780601f106103b3576101008083540402835291602001916103de565b820191906000526020600020905b8154815290600101906020018083116103c157829003601f168201915b5050505050908060020160009054906101000a900473ffffffffffffffffffffffffffffffffffffffff16905083565b6001600081548092919061042190610a55565b9190505550604051806060016040528060015481526020018281526020013373ffffffffffffffffffffffffffffffffffffffff16815250600080600154815260200190815260200160002060008201518160000155602082015181600101908051906020019061049392919061051e565b5060408201518160020160006101000a81548173ffffffffffffffffffffffffffffffffffffffff021916908373ffffffffffffffffffffffffffffffffffffffff1602179055509050507fd15950d5acd154cca6ffb96948a942400703141f5bae49b8288ecc5522adef756001548233604051610513939291906108ea565b60405180910390a150565b82805461052a90610a23565b90600052602060002090601f01602090048101928261054c5760008555610593565b82601f1061056557805160ff1916838001178555610593565b82800160010185558215610593579182015b82811115610592578251825591602001919060010190610577565b5b5090506105a091906105e4565b5090565b5080546105b090610a23565b6000825580601f106105c257506105e1565b601f0160209004906000526020600020908101906105e091906105e4565b5b50565b5b808211156105fd5760008160009055506001016105e5565b5090565b600061061461060f84610959565b610928565b90508281526020810184848401111561062c57600080fd5b6106378482856109e1565b509392505050565b600082601f83011261065057600080fd5b8135610660848260208601610601565b91505092915050565b60008135905061067881610b3c565b92915050565b60006020828403121561069057600080fd5b600082013567ffffffffffffffff8111156106aa57600080fd5b6106b68482850161063f565b91505092915050565b6000602082840312156106d157600080fd5b60006106df84828501610669565b91505092915050565b600080604083850312156106fb57600080fd5b600061070985828601610669565b925050602083013567ffffffffffffffff81111561072657600080fd5b6107328582860161063f565b9150509250929050565b610745816109a5565b82525050565b600061075682610989565b6107608185610994565b93506107708185602086016109f0565b61077981610b2b565b840191505092915050565b6000610791602483610994565b91507f4f6e6c7920746865206f776e65722063616e207570646174652074686973206560008301527f6e747279000000000000000000000000000000000000000000000000000000006020830152604082019050919050565b60006107f7602483610994565b91507f4f6e6c7920746865206f776e65722063616e2064656c6574652074686973206560008301527f6e747279000000000000000000000000000000000000000000000000000000006020830152604082019050919050565b610859816109d7565b82525050565b6000602082019050818103600083015261087881610784565b9050919050565b60006020820190508181036000830152610898816107ea565b9050919050565b60006020820190506108b46000830184610850565b92915050565b60006040820190506108cf6000830185610850565b81810360208301526108e1818461074b565b90509392505050565b60006060820190506108ff6000830186610850565b8181036020830152610911818561074b565b9050610920604083018461073c565b949350505050565b6000604051905081810181811067ffffffffffffffff8211171561094f5761094e610afc565b5b8060405250919050565b600067ffffffffffffffff82111561097457610973610afc565b5b601f19601f8301169050602081019050919050565b600081519050919050565b600082825260208201905092915050565b60006109b0826109b7565b9050919050565b600073ffffffffffffffffffffffffffffffffffffffff82169050919050565b6000819050919050565b82818337600083830152505050565b60005b83811015610a0e5780820151818401526020810190506109f3565b83811115610a1d576000848401525b50505050565b60006002820490506001821680610a3b57607f821691505b60208210811415610a4f57610a4e610acd565b5b50919050565b6000610a60826109d7565b91507fffffffffffffffffffffffffffffffffffffffffffffffffffffffffffffffff821415610a9357610a92610a9e565b5b600182019050919050565b7f4e487b7100000000000000000000000000000000000000000000000000000000600052601160045260246000fd5b7f4e487b7100000000000000000000000000000000000000000000000000000000600052602260045260246000fd5b7f4e487b7100000000000000000000000000000000000000000000000000000000600052604160045260246000fd5b6000601f19601f8301169050919050565b610b45816109d7565b8114610b5057600080fd5b5056fea2646970667358221220bbc04e901ee27b9ccd93708780b81c3477ccca14d0bba4f336f6e478ff1f816864736f6c63430008000033",
  "immutableReferences": {},
  "source": "// SPDX-License-Identifier: MIT\npragma solidity ^0.8.0;\n\ncontract DataEntry {\n    struct Entry {\n        uint id;\n        string data;\n        address owner;\n    }\n\n    mapping(uint => Entry) public entries;\n    uint public entryCount;\n\n    event EntryCreated(uint id, string data, address owner);\n    event EntryUpdated(uint id, string data);\n    event EntryDeleted(uint id);\n\n    function createEntry(string memory _data) public {\n        entryCount++;\n        entries[entryCount] = Entry(entryCount, _data, msg.sender);\n        emit EntryCreated(entryCount, _data, msg.sender);\n    }\n\n    function updateEntry(uint _id, string memory _data) public {\n        Entry storage entry = entries[_id];\n        require(entry.owner == msg.sender, \"Only the owner can update this entry\");\n\n        entry.data = _data;\n\n        emit EntryUpdated(_id, _data);\n    }\n\n    function deleteEntry(uint _id) public {\n        Entry storage entry = entries[_id];\n        require(entry.owner == msg.sender, \"Only the owner can delete this entry\");\n\n        delete entries[_id];\n\n        emit EntryDeleted(_id);\n    }\n}\n",
  "sourcePath": "/home/allan/afredac-blockchain/contracts/DataEntry.sol",
  "compiler": {
    "name": "solc",
    "version": "0.8.0+commit.c7dfd78e.Emscripten.clang"
  },
  "schemaVersion": "3.4.16",
  "updatedAt": "2024-07-10T17:26:13.145Z",
  "networkType": "ethereum",
  "devdoc": {
    "kind": "dev",
    "methods": {},
    "version": 1
  },
  "userdoc": {
    "kind": "user",
    "methods": {},
    "version": 1
  }
}